:100000000C9434000C9451000C9451000C94510049
:100010000C9451000C9451000C9451000C9451001C
:100020000C9451000C9451000C9451000C9451000C
:100030000C9451000C9451000C9451000C945100FC
:100040000C9451000C9451000C94A4010C94510098
:100050000C9451000C9451000C9451000C945100DC
:100060000C9451000C94510011241FBECFEFD8E026
:10007000DEBFCDBF11E0A0E0B1E0E8E3F6E002C0F2
:1000800005900D92A232B107D9F721E0A2E2B1E0CA
:1000900001C01D92A635B207E1F70E94BF000C9483
:1000A0001A030C940000569A17BC84B5806884BD6E
:1000B00084B5836084BD85B5826085BD0895CF9386
:1000C000DF93DC01FB013097A9F020E030E090E005
:1000D00040E050E0BA01ED01C20FD31F2881420F6A
:1000E000511D611D711D9F5F292F30E02E173F07A5
:1000F00090F303C040E050E0BA01CB01BA012FEF0A
:1001000030E040E050E00E94F802862FDF91CF916E
:100110000895CF93DF9380E090E0DC014C9B0AC010
:100120000196A11DB11D81322EE49207A105B105F2
:10013000A9F705C081329E44A105B10539F441E01B
:100140006DE080E091E00E94270116C05B9A0000FC
:1001500000000000C1ECD0E088E9888341E065E15F
:100160008EE091E00E94270180E988837894000066
:10017000000000008BB11BB8DF91CF910895109261
:1001800025011092240110923C0110923D01109221
:100190003E0110923F01539A8BB11BB8789484E1D1
:1001A00090E00E940F010E94530081EE87BDC6E2DD
:1001B000D1E005E11CE62091240130912501232B9B
:1001C000D1F3F894E0E4F1E0DE01802F01900D928C
:1001D0008A95E1F7789410922501109224011883F2
:1001E00064E170E0CE010E945F008C8B0E94890068
:1001F0008B816A8170E0782B80E090E00E94FD01A5
:1002000020E030E040E85CE30E948B0260933C0118
:1002100070933D0180933E0190933F01CCCF90932A
:10022000C5008093C400E0ECF0E0808182608083B0
:1002300088E98093C10086E08093C2000895E0ECD5
:10024000F0E0908195FFFDCF8093C6000895FF9266
:100250000F931F93CF93DF93F42E662371F0EC017D
:100260006150062F10E00F5F1F4F080F191F899173
:100270000E941F01C017D107D1F7FF2031F08DE098
:100280000E941F018AE00E941F01E0ECF0E08081E3
:1002900086FFFDCFDF91CF911F910F91FF900895C1
:1002A0000F931F93CF93DF93CDB7DEB764970FB64D
:1002B000F894DEBF0FBECDBFDC0111968E010F5F3B
:1002C0001F4FAE014B5E5F4FC8019D0121503109A8
:1002D000F90160812C9130E0322F2227260F311D49
:1002E000FC0121933193CF011296E417F50769F7CA
:1002F00080E090E0DC01880F991FAA1FBB1FF80166
:10030000219131918F01820F931FA11DB11DE4171F
:10031000F50789F7AC01BD01032E3FE0769567959F
:10032000579547953A95D1F7302D9F77840F951FB4
:100330009F7764960FB6F894DEBF0FBECDBFDF91F6
:10034000CF911F910F9108951F920F920FB60F92A8
:1003500011242F933F934F935F936F937F938F93CA
:100360009F93AF93BF93EF93FF93F8942091C600B0
:100370002A3F49F481E090E0909323018093220189
:100380002093400128C08091220190912301863161
:1003900091050CF5AC014F5F5F4F509323014093E3
:1003A0002201FC01E05CFE4F20834631510599F4A7
:1003B00080E491E00E945001E0E4F1E04589248965
:1003C00030E0342B8217930731F481E090E0909372
:1003D0002501809324017894FF91EF91BF91AF9113
:1003E0009F918F917F916F915F914F913F912F914D
:1003F0000F900FBE0F901F901895E89409C097FBBF
:100400003EF490958095709561957F4F8F4F9F4FEB
:100410009923A9F0F92F96E9BB279395F69587952F
:1004200077956795B795F111F8CFFAF4BB0F11F4F2
:1004300060FF1BC06F5F7F4F8F4F9F4F16C0882399
:1004400011F096E911C0772321F09EE8872F762FCF
:1004500005C0662371F096E8862F70E060E02AF010
:100460009A95660F771F881FDAF7880F96958795FC
:1004700097F9089597F99F6780E870E060E0089524
:100480009FEF80EC089500240A94161617061806AC
:100490000906089500240A94121613061406050688
:1004A0000895092E0394000C11F4882352F0BB0F19
:1004B00040F4BF2B11F460FF04C06F5F7F4F8F4F7C
:1004C0009F4F089557FD9058440F551F59F05F3FB7
:1004D00071F04795880F97FB991F61F09F3F79F066
:1004E00087950895121613061406551FF2CF4695E8
:1004F000F1DF08C0161617061806991FF1CF86956A
:100500007105610508940895E894BB27662777274D
:10051000CB0197F908950E949E020C9451020E940B
:10052000430238F00E944A0220F0952311F00C9407
:100530003A020C94400211240C9485020E9462023B
:1005400070F3959FC1F3950F50E0551F629FF00126
:10055000729FBB27F00DB11D639FAA27F00DB11D3F
:10056000AA1F649F6627B00DA11D661F829F2227C8
:10057000B00DA11D621F739FB00DA11D621F839F4F
:10058000A00D611D221F749F3327A00D611D231F25
:10059000849F600D211D822F762F6A2F11249F5773
:1005A00050409AF0F1F088234AF0EE0FFF1FBB1F76
:1005B000661F771F881F91505040A9F79E3F510535
:1005C00080F00C943A020C9485025F3FE4F3983E6D
:1005D000D4F3869577956795B795F795E7959F5FDF
:1005E000C1F7FE2B880F911D9695879597F9089571
:1005F000A1E21A2EAA1BBB1BFD010DC0AA1FBB1F27
:10060000EE1FFF1FA217B307E407F50720F0A21B98
:10061000B30BE40BF50B661F771F881F991F1A9405
:1006200069F760957095809590959B01AC01BD012F
:08063000CF010895F894FFCFFB
:100638006C69642054696D65206F757421004142AE
:10064800434445464748494A4B4C4D4E4F505152FA
:0206580053004D
:00000001FF
