:100000000C9434000C9451000C9451000C94510049
:100010000C9451000C9451000C9451000C9451001C
:100020000C9451000C9451000C9451000C9451000C
:100030000C9451000C9451000C9451000C945100FC
:100040000C9451000C9451000C94AA010C94510092
:100050000C9451000C9451000C9451000C945100DC
:100060000C9451000C94510011241FBECFEFD8E026
:10007000DEBFCDBF11E0A0E0B1E0E6E2F9E002C0F2
:1000800005900D92A032B107D9F721E0A0E2B1E0CE
:1000900001C01D92A638B207E1F70E9412020C942B
:1000A00091040C9400008091660190916701892B66
:1000B000D1F31092670110926601809184019091B2
:1000C000850146E1489F9001499F300D11242C5D28
:1000D0003E4F80916C0190916D01019690936D015E
:1000E00080936C0180916C0190916D01039734F0C5
:1000F00083E090E090936D0180936C018091840186
:1001000090918501019663E070E00E941D04909338
:1001100085018093840181E090E090936701809352
:100120006601C90108959B0177233CF46627772770
:10013000621B730B0E94930008950E941D04992373
:1001400014F4820F931F08958091660190916701C6
:10015000892BD1F3109267011092660180916C0196
:1001600090916D01892B09F452C080916C0190919E
:100170006D010397C9F080918401909185012091D0
:100180006C0130916D0163E070E0821B930B0E9463
:10019000930046E19C01429FC001439F900D1124B2
:1001A0009C012C5D3E4F0CC0809184019091850193
:1001B00046E1489F9001499F300D11242C5D3E4F30
:1001C00080916C0190916D01019790936D018093E6
:1001D0006C01809184019091850101979093850134
:1001E000809384018091840190918501019631F47E
:1001F00082E090E0909385018093840181E090E01B
:100200009093670180936601822F932F089580E079
:1002100090E00895569A17BC84B5806884BD84B573
:10022000836084BD85B5826085BD0895CF93DF93DB
:10023000DC01FB013097A9F020E030E090E040E0E5
:1002400050E0BA01ED01C20FD31F2881420F511DAA
:10025000611D711D9F5F292F30E02E173F0790F31E
:1002600003C040E050E0BA01CB01BA012FEF30E00B
:1002700040E050E00E943104862FDF91CF91089535
:10028000CF92DF92EF92FF92CF93DF93EC018CE657
:1002900088836B8170E0762F66278A81682B80E0E7
:1002A00090E00E94F90220E030E040E85CE30E9428
:1002B000B003609368017093690180936A01909321
:1002C0006B01BE016C5F7F4F42E150E0CE010296B0
:1002D0000E94670462E170E0CE010E9416018A8BE1
:1002E00060E070E0CB0102C0C701B6014C9B13C0B7
:1002F0006B017C012FEFC21AD20AE20AF20A0E94B5
:10030000F90220E030E44CE156E40E94F402882334
:100310005CF3C701B6010E94F90220E030E44CE131
:1003200056E40E94AB03181674F05B9A41E063E157
:10033000CE010E947A0287EE93E00197F1F700C0A8
:1003400000008BB11BB8DF91CF91FF90EF90DF9051
:10035000CF9008951F920F920FB60F9211242F93F2
:100360003F934F935F936F937F938F939F93AF933D
:10037000BF93EF93FF93F8942091C6002A3F49F46E
:1003800081E090E0909323018093220120936E01FD
:1003900037C080912201909123018631910584F527
:1003A000AC014F5F5F4F5093230140932201FC014A
:1003B000E259FE4F20834631510511F58EE691E05A
:1003C0000E94A002EEE6F1E04589248930E0342B5A
:1003D00082179307A9F486E1E0E0F1E0AEE6B1E030
:1003E00001900D928A95E1F70E94530090932101AC
:1003F0008093200146E150E06EE671E00E947904AE
:100400007894FF91EF91BF91AF919F918F917F91E0
:100410006F915F914F913F912F910F900FBE0F9071
:100420001F901895CF93DF93CDB7DEB766970FB6C1
:10043000F894DEBF0FBECDBF10926D0110926C011B
:10044000109285011092840181E090E09093670101
:100450008093660182E4E4E2F1E0DF011D928A9577
:10046000E9F7109268011092690110926A011092E6
:100470006B01539A8BB11BB884E190E00E94620239
:10048000789441E067E087E191E00E947A020E945F
:100490000A0181EE87BD0FC00E94A400F89446E1D6
:1004A00050E0BC01CE0101960E9479047894CE01FF
:1004B00001960E94400180916C0190916D01892B01
:1004C00059F7F9CF9093C5008093C400E0ECF0E0B9
:1004D00080818260808388E98093C10086E0809378
:1004E000C2000895E0ECF0E0908195FFFDCF80938D
:1004F000C6000895FF920F931F93CF93DF93F42EBE
:10050000662371F0EC016150062F10E00F5F1F4F62
:10051000080F191F89910E947202C017D107D1F7E5
:10052000FF2019F08AE00E947202E0ECF0E0808186
:1005300086FFFDCFDF91CF911F910F91FF9008951E
:100540000F931F93CF93DF93CDB7DEB764970FB6AA
:10055000F894DEBF0FBECDBFDC0111968E010F5F98
:100560001F4FAE014B5E5F4FC8019D012150310905
:10057000F90160812C9130E0322F2227260F311DA6
:10058000FC0121933193CF011296E417F50769F727
:1005900080E090E0DC01880F991FAA1FBB1FF801C3
:1005A000219131918F01820F931FA11DB11DE4177D
:1005B000F50789F7AC01BD01032E3FE076956795FD
:1005C000579547953A95D1F7302D9F77840F951F12
:1005D0009F7764960FB6F894DEBF0FBECDBFDF9154
:1005E000CF911F910F9108950E94360308F481E086
:1005F0000895E89409C097FB3EF490958095709516
:1006000061957F4F8F4F9F4F9923A9F0F92F96E95E
:10061000BB279395F695879577956795B795F111D3
:10062000F8CFFAF4BB0F11F460FF1BC06F5F7F4F70
:100630008F4F9F4F16C0882311F096E911C0772382
:1006400021F09EE8872F762F05C0662371F096E88B
:10065000862F70E060E02AF09A95660F771F881F5A
:10066000DAF7880F9695879597F90895990F0008FE
:10067000550FAA0BE0E8FEEF16161706E807F90774
:10068000C0F012161306E407F50798F0621B730B0F
:10069000840B950B39F40A2661F0232B242B252B90
:1006A00021F408950A2609F4A140A6958FEF811D33
:1006B000811D089597F99F6780E870E060E00895D4
:1006C0009FEF80EC089500240A941616170618066A
:1006D0000906089500240A94121613061406050646
:1006E0000895092E0394000C11F4882352F0BB0FD7
:1006F00040F4BF2B11F460FF04C06F5F7F4F8F4F3A
:100700009F4F089557FD9058440F551F59F05F3F74
:1007100071F04795880F97FB991F61F09F3F79F023
:1007200087950895121613061406551FF2CF4695A5
:10073000F1DF08C0161617061806991FF1CF869527
:100740007105610508940895E894BB27662777270B
:10075000CB0197F908950E94360308F48FEF0895AE
:100760000E94C3030C9471030E94630338F00E943B
:100770006A0320F0952311F00C945A030C94600343
:1007800011240C94A5030E94820370F3959FC1F37A
:10079000950F50E0551F629FF001729FBB27F00D2F
:1007A000B11D639FAA27F00DB11DAA1F649F662784
:1007B000B00DA11D661F829F2227B00DA11D621FD3
:1007C000739FB00DA11D621F839FA00D611D221F8D
:1007D000749F3327A00D611D231F849F600D211D71
:1007E000822F762F6A2F11249F5750409AF0F1F0F4
:1007F00088234AF0EE0FFF1FBB1F661F771F881F5D
:1008000091505040A9F79E3F510580F00C945A0337
:100810000C94A5035F3FE4F3983ED4F38695779557
:100820006795B795F795E7959F5FC1F7FE2B880F02
:10083000911D9695879597F9089597FB072E16F4C5
:10084000009407D077FD09D00E94530407FC05D01F
:100850003EF4909581959F4F0895709561957F4FD7
:100860000895A1E21A2EAA1BBB1BFD010DC0AA1FF1
:10087000BB1FEE1FFF1FA217B307E407F50720F009
:10088000A21BB30BE40BF50B661F771F881F991F84
:100890001A9469F760957095809590959B01AC01CD
:1008A000BD01CF010895AA1BBB1B51E107C0AA1FC0
:1008B000BB1FA617B70710F0A61BB70B881F991F01
:1008C0005A95A9F780959095BC01CD0108956817B8
:1008D000790768F4FB01DC01E40FF51FA40FB51FD5
:1008E00002C002900E9241505040D8F708950C94E7
:1008F0008804FB01DC014150504048F001900D920A
:100900000020C9F701C01D9241505040E0F7089502
:10091000FB01DC0102C001900D9241505040D8F71C
:060920000895F894FFCFDA
:10092600303132333435363738394142434445461F
:100936004748494A4B4C0053746172746564000021
:00000001FF
