:100000000C9434000C9446000C9446000C9446006A
:100010000C9446000C9446000C9446000C94460048
:100020000C9446000C9446000C9446000C94460038
:100030000C9446000C9446000C9446000C94460028
:100040000C9446000C9446000C94AD020C944600AF
:100050000C9446000C9446000C9446000C94460008
:100060000C9446000C94460011241FBECFEFD8E03C
:10007000DEBFCDBF21E0A0E0B1E001C01D92AE3AED
:10008000B207E1F70E940C030C94F4040C940000F6
:100090009B0177233CF466277727621B730B0E9432
:1000A000480008950E948004992314F4820F931F3E
:1000B00008958091AC018823E1F31092AC01809106
:1000C0004C0190914D0146E1489F9001499F300DB0
:1000D0001124225B3E4F80919001909191010196F5
:1000E0009093910180939001809190019091910162
:1000F000039734F083E090E0909391018093900116
:1001000080914C0190914D01019663E070E00E9456
:10011000800490934D0180934C0181E08093AD0168
:100120008093AC01C90108958091AC018823E1F36B
:100130001092AC018091900190919101892B09F46A
:1001400057C080919001909191010397C9F08091DF
:100150004C0190914D01209190013091910163E00B
:1001600070E0821B930B0E94480046E19C01429F75
:10017000C001439F900D11249C01225B3E4F0CC097
:1001800080914C0190914D0146E1489F9001499F1B
:10019000300D1124225B3E4F80919001909191018E
:1001A000019790939101809390018091900190919B
:1001B0009101892B11F41092AD0180914C01909125
:1001C0004D01019790934D0180934C0180914C011A
:1001D00090914D01019631F482E090E090934D01B1
:1001E00080934C0181E08093AC01822F932F08957E
:1001F00080E090E00895569A17BC84B5806884BD6D
:1002000084B5836084BD85B5826085BD089587BD52
:100210000895109291011092900110924D01109248
:100220004C0181E08093AC011092920110929301F5
:1002300010929401109295011092AD01539A8BB1D6
:100240001BB882E4EEE4F1E0DF011D928A95E9F744
:1002500084E190E00E9419030E94FB000895CF936F
:10026000DF93DC01FB013097A9F020E030E090E063
:1002700040E050E0BA01ED01C20FD31F2881420FC8
:10028000511D611D711D9F5F292F30E02E173F0703
:1002900090F303C040E050E0BA01CB01BA012FEF68
:1002A00030E040E050E00E949404862FDF91CF912F
:1002B00008952F923F925F926F927F928F929F92BA
:1002C000AF92BF92CF92DF92EF92FF920F931F9364
:1002D000CF93DF93C0909001D09091011C141D0426
:1002E0000CF06FC0C8E0D1E00F2EFAE1EF2EF1E084
:1002F000FF2EF02D00E010E00F2EFCE65F2EF02D1B
:10030000560121E0A21AB10886E18A9D90018B9DD9
:10031000300D1124C901885F9E4F4C01A3E08A0E65
:10032000911C1C01B2E02B0E311C0E949400909392
:100330004B0180934A01F8946C2E7D2E60914A0106
:1003400070914B0146E150E0CE010E94DC047894AC
:100350005882A016B106D1F4F401608170E0762FC6
:100360006627D1018C91682B80E090E00E945C03AD
:1003700020E030E040E85CE30E94130460939201C7
:10038000709393018093940190939501BE016C5FEB
:100390007F4F42E150E0CE0102960E94CA0462E122
:1003A00070E0862D972D0E942F01F70180830F5F4B
:1003B0001F4F6696F6E1EF0EF11C0C151D0509F0B6
:1003C000B4CF109204011092050110920601109210
:1003D00007014C9B20C06091040170910501809140
:1003E0000601909107018B019C010F5F1F4F2F4F5A
:1003F0003F4F0093040110930501209306013093B1
:1004000007010E945C0320E030E44CE156E40E94C6
:1004100057038823F4F260910401709105018091E3
:100420000601909107010E945C0320E030E44CE15A
:1004300056E40E940E04181654F15B9A1C141D0415
:100440009CF4C8E0D1E086E18C9D80018D9D100D6B
:100450001124085F1E4F41E063E1CE010E94310389
:100460006696C017D107B9F787EE93E00197F1F7C9
:1004700000C000008BB11BB810924B0110924A01D2
:1004800082E4E8E0F1E0DF011D928A95E9F7DF916F
:10049000CF911F910F91FF90EF90DF90CF90BF9081
:1004A000AF909F908F907F906F905F903F902F9034
:1004B00008950F931F93CF93DF93CDB7DEB7649763
:1004C0000FB6F894DEBF0FBECDBFDC0111968E01D2
:1004D0000F5F1F4FAE014B5E5F4FC8019D01215062
:1004E0003109F90160812C9130E0322F2227260F4B
:1004F000311DFC0121933193CF011296E417F507CA
:1005000069F780E090E0DC01880F991FAA1FBB1FEC
:10051000F801219131918F01820F931FA11DB11D0F
:10052000E417F50789F7AC01BD01032E3FE076958E
:100530006795579547953A95D1F7302D9F77840F5A
:10054000951F9F7764960FB6F894DEBF0FBECDBFA0
:10055000DF91CF911F910F9108951F920F920FB6C7
:100560000F9211242F933F934F935F936F937F9339
:100570008F939F93AF93BF93EF93FF93F894209142
:10058000C6002A3F49F481E090E0909303018093F4
:100590000201209396012EC08091020190910301E7
:1005A000863191053CF5AC014F5F5F4F50930301DD
:1005B00040930201FC01EA56FE4F2083463151056B
:1005C000C9F486E991E00E945902E6E9F1E0458923
:1005D000248930E0342B8217930761F40E9459007C
:1005E000909301018093000146E150E066E971E0DB
:1005F0000E94DC047894FF91EF91BF91AF919F919D
:100600008F917F916F915F914F913F912F910F90BB
:100610000FBE0F901F9018950E940901789481EEEB
:100620000E9407018091AD018823E1F30E945901E6
:10063000F9CF9093C5008093C400E0ECF0E0808196
:100640008260808388E98093C10086E08093C20045
:100650000895E0ECF0E0908195FFFDCF8093C60017
:100660000895FF920F931F93CF93DF93F42E662389
:1006700071F0EC016150062F10E00F5F1F4F080F63
:10068000191F89910E942903C017D107D1F7FF20B4
:1006900019F08AE00E942903E0ECF0E0808186FFF7
:1006A000FDCFDF91CF911F910F91FF9008950E9490
:1006B000990308F481E00895E89409C097FB3EF49B
:1006C00090958095709561957F4F8F4F9F4F99239F
:1006D000A9F0F92F96E9BB279395F695879577951D
:1006E0006795B795F111F8CFFAF4BB0F11F460FFDD
:1006F0001BC06F5F7F4F8F4F9F4F16C0882311F035
:1007000096E911C0772321F09EE8872F762F05C048
:10071000662371F096E8862F70E060E02AF09A95E3
:10072000660F771F881FDAF7880F9695879597F9D8
:100730000895990F0008550FAA0BE0E8FEEF161672
:100740001706E807F907C0F012161306E407F507C5
:1007500098F0621B730B840B950B39F40A2661F039
:10076000232B242B252B21F408950A2609F4A140DC
:10077000A6958FEF811D811D089597F99F6780E8E9
:1007800070E060E008959FEF80EC089500240A94E3
:100790001616170618060906089500240A9412165C
:1007A0001306140605060895092E0394000C11F48F
:1007B000882352F0BB0F40F4BF2B11F460FF04C03C
:1007C0006F5F7F4F8F4F9F4F089557FD9058440F95
:1007D000551F59F05F3F71F04795880F97FB991FA0
:1007E00061F09F3F79F0879508951216130614065D
:1007F000551FF2CF4695F1DF08C0161617061806EA
:10080000991FF1CF86957105610508940895E894C4
:10081000BB2766277727CB0197F908950E94990394
:1008200008F48FEF08950E9426040C94D4030E94CC
:10083000C60338F00E94CD0320F0952311F00C94EC
:10084000BD030C94C30311240C9408040E94E50317
:1008500070F3959FC1F3950F50E0551F629FF00113
:10086000729FBB27F00DB11D639FAA27F00DB11D2C
:10087000AA1F649F6627B00DA11D661F829F2227B5
:10088000B00DA11D621F739FB00DA11D621F839F3C
:10089000A00D611D221F749F3327A00D611D231F12
:1008A000849F600D211D822F762F6A2F11249F5760
:1008B00050409AF0F1F088234AF0EE0FFF1FBB1F63
:1008C000661F771F881F91505040A9F79E3F510522
:1008D00080F00C94BD030C9408045F3FE4F3983E51
:1008E000D4F3869577956795B795F795E7959F5FCC
:1008F000C1F7FE2B880F911D9695879597F908955E
:1009000097FB072E16F4009407D077FD09D00E94BC
:10091000B60407FC05D03EF4909581959F4F08954D
:10092000709561957F4F0895A1E21A2EAA1BBB1BFB
:10093000FD010DC0AA1FBB1FEE1FFF1FA217B307AB
:10094000E407F50720F0A21BB30BE40BF50B661FC1
:10095000771F881F991F1A9469F760957095809585
:1009600090959B01AC01BD01CF010895AA1BBB1B53
:1009700051E107C0AA1FBB1FA617B70710F0A61B9F
:10098000B70B881F991F5A95A9F780959095BC01C0
:10099000CD0108956817790768F4FB01DC01E40FC5
:1009A000F51FA40FB51F02C002900E924150504097
:1009B000D8F708950C94EB04FB01DC014150504042
:1009C00048F001900D920020C9F701C01D924150DE
:1009D0005040E0F70895FB01DC0102C001900D9248
:0C09E00041505040D8F70895F894FFCF24
:00000001FF
