S01300004750535F4932435F4156522E73726563C2
S11300000C9434000C9451000C9451000C94510045
S11300100C9451000C9451000C9451000C94510018
S11300200C9451000C9451000C9451000C94510008
S11300300C9451000C9451000C9451000C945100F8
S11300400C9451000C9451000C94EA010C9451004E
S11300500C9451000C9451000C9451000C945100D8
S11300600C940D030C94510011241FBECFEFD8E063
S1130070DEBFCDBF11E0A0E0B1E0E0E7F7E002C0F1
S113008005900D92AC30B107D9F721E0ACE0B1E0B6
S113009001C01D92A839B207E1F70E9430020C9406
S11300A0B6030C9400009093C5008093C40088E9C3
S11300B08093C10086E08093C2000895E0ECF0E0F4
S11300C0908195FFFDCF8093C60008954423D1F01D
S11300D0FC013081FB012081321316C0FC013196F2
S11300E0DB011196415050E04F5F5F4F480F591F9D
S11300F004C021919D91291309C0E417F507C9F79C
S113010081E0089581E0089580E0089580E00895F5
S113011050E0E62FF72FDC0160E070E0362F91917C
S11301206F5F7F4F9C3211F09A3029F4215019F4FB
S113013081E0830F08959D93862F4617570774F720
S113014008950F931F93CF93DF93662371F0EC010F
S11301506150062F10E00F5F1F4F080F191F899180
S11301600E945E00C017D107D1F78AE00E945E00AA
S1130170DF91CF911F910F9108950F931F93CF9308
S1130180DF93CDB7DEB7C557D1090FB6F894DEBFFC
S11301900FBECDBFBC0135E0FE013196DF01832FD8
S11301A01D928A95E9F725E4298392E59A839B8336
S11301B085E0E1E0F1E0DE01169601900D928A956A
S11301C0E1F785E0E6E0F1E0DE011B9601900D9297
S11301D08A95E1F7FE01709689E0DF011D928A9508
S11301E0E9F7288B998B86E38A8B39968CE0DF01BB
S11301F01D928A95E9F7298F9A8F81E38B8F3C961C
S11302008DE0DF011D928A95E9F72DA39EA382E379
S11302108FA33D96DF01832F1D928A95E9F72AABC0
S11302209BAB83E38CAB3596DF011D923A95E9F7DE
S11302302FAB98AF84E389AF359686E0DF011D923A
S11302408A95E9F72CAF9DAF85E38EAFFB018081E2
S1130250843209F07DC08B010F5F1F4F21E045E020
S1130260B801CE0101960E948800080F111D45E0D7
S1130270BE016A5F7F4FCE0101960E94660088230B
S113028009F44BC021E049E0B801CE0140960E9438
S11302908800F801E80FF11D8081813409F058C00D
S11302A08F010E5F1F4F22E04CE0B801CE0149964A
S11302B00E948800080F111D22E04DE0B801CE0114
S11302C085960E948800080F111D21E045E0B801C1
S11302D0CE01C2960E948800080F111D21E045E05E
S11302E0B801CE01C7960E948800080F111D23E0B3
S11302F042E3B801CE018E5B9F4F0E948800682FB5
S113030070E06E5F7F4F600F711F21E042E0CE010D
S11303108C589F4F0E9488001BC045E0BE01655F5A
S11303207F4FCE0101960E946600882389F028E061
S113033042E3B801CE018E5B9F4F0E948800B80152
S1130340680F711D21E046E0CE01CC960E94880022
S113035089E0FE017096AEE7B1E001900D928A95B6
S1130360E1F78CE0FE017996A7E8B1E001900D92E7
S11303708A95E1F78DE0FE01B596ABE6B1E0019018
S11303800D928A95E1F786E0FE01FC96A8E7B1E0BC
S113039001900D928A95E1F785E0FE01F296A3E9BA
S11303A0B1E001900D928A95E1F785E0FE01F796A0
S11303B0A6E6B1E001900D928A95E1F7CB58DF4FA4
S11303C00FB6F894DEBF0FBECDBFDF91CF911F9162
S11303D00F9108951F920F920FB60F9211242F932D
S11303E03F934F935F936F937F938F939F93AF93B9
S11303F0BF93EF93FF93F8949091C6009A3091F4D1
S1130400E0910C01F0E0EA5EFE4F8AE080831092F6
S11304100C01789486E191E00E94BD0081E0809314
S113042015010CC01092150180910C01E82FF0E029
S1130430EA5EFE4F90838F5F80930C017894FF9166
S1130440EF91BF91AF919F918F917F916F915F9148
S11304504F913F912F910F900FBE0F901F901895C1
S1130460CF93DF931F92CDB7DEB783E390E00E9472
S1130470530081E20E94B60278940E94E00289E669
S113048089830E94BE028111FCCF80910E0181FFFD
S1130490F8CF61E0CE0101960E94EF028981833694
S11304A049F128F4813651F08236B1F05BC08536CB
S11304B0E9F170F1863609F447C054C06CE087E86E
S11304C091E00E94C1026CE087E891E00E94A100E3
S11304D081E60E945E00D5CF6DE08BE691E00E943C
S11304E0C1026DE08BE691E00E94A10082E60E94C9
S11304F05E00C7CF69E08EE791E00E94C10269E027
S11305008EE791E00E94A10083E60E945E00B9CFCD
S113051065E083E991E00E94C10265E083E991E02E
S11305200E94A10084E60E945E00ABCF65E086E6EF
S113053091E00E94C10265E086E691E00E94A1007C
S113054085E60E945E009DCF66E088E791E00E9408
S1130550C10266E088E791E00E94A10086E60E945D
S11305605E008FCF8AE70E945E008BCF8093BA0033
S113057084E08093BC0010920F01089580910F01D4
S1130580089520910F012111FCCF6093100166237F
S113059059F0282FA1E1B1E0E82FF92F81918D9333
S11305A08E2F821B8617D0F310920E0188EF809352
S11305B0000185EC8093BC0081E080930F010895D5
S11305C080910F018111FCCF10920E0188EF80936E
S11305D0000185EC8093BC0010920F0108952091D6
S11305E00F012111FCCF20910E0120FF12C06623C0
S11305F059F021E131E0A82FB92FF90181918D93B0
S11306008E2F821B8617D0F380910E018D7F8093ED
S11306100E0180910E01817008951F920F920FB602
S11306200F9211248F939F93EF93FF938091B900BE
S1130630803909F463C090F4803709F44CC038F46D
S1130640882309F479C0803609F44AC07DC0803813
S113065009F454C0883809F46FC076C0883A81F030
S113066038F4883909F468C0803A09F45FC06CC072
S1130670803CD9F0883C09F45FC0883B19F064C021
S113068010920D01E0910D0181E08E0F80930D0118
S1130690F0E0EF5EFE4F80818093BB0085EC809399
S11306A0BC0081E080930F0158C090910D018091AE
S11306B01001981306C080910E01816080930E0191
S11306C004C08091B9008093000185EC8093BC0044
S11306D010920F0142C080910E01846080930E013C
S11306E080910E01826080930E0110920D0185ECC1
S11306F08093BC0081E080930F012FC0E0910D0135
S113070081E08E0F80930D018091BB00F0E0EF5EDD
S1130710FE4F808380910E01816080930E0185ECF1
S11307208093BC0081E080930F0117C085EC809317
S1130730BC0010920F0111C08091B9008093000198
S113074080E98093BC0009C08091B90080930001C6
S113075085EC8093BC0010920F01FF91EF919F9163
S11307608F910F900FBE0F901F901895F894FFCFA4
S10F0770F84750524D43475047474100A2
S9030000FC
