S01300004750535F4932435F4156522E73726563C2
S11300000C9434000C9451000C9451000C94510045
S11300100C9451000C9451000C9451000C94510018
S11300200C9451000C9451000C9451000C94510008
S11300300C9451000C9451000C9451000C945100F8
S11300400C9451000C9451000C942A020C9451000D
S11300500C9451000C9451000C9451000C945100D8
S11300600C9428030C94510011241FBECFEFD8E048
S1130070DEBFCDBF11E0A0E0B1E0E8EBF7E002C0E5
S113008005900D92A231B107D9F721E0A2E1B1E0C8
S113009001C01D92AE39B207E1F70E9470020C94C0
S11300A0DA030C9400009093C5008093C40088E99F
S11300B08093C10086E08093C20008954423D1F068
S11300C0FC013081FB012081321316C0FC01319602
S11300D0DB011196415050E04F5F5F4F480F591FAD
S11300E004C021919D91291309C0E417F507C9F7AC
S11300F081E0089581E0089580E0089580E0089506
S11301000F93CF93DF93EC01E62FF72F80E09191CB
S11301109C3211F09A3029F4215019F4982F8F5FF2
S113012008C0DE01A80FB11D9C938F5F481778F7B4
S1130130982F063031F0E02FF0E0E050FF4F905D53
S11301409083DF91CF910F910895EF92FF920F93D7
S1130150CF93DF93CDB7DEB7C557D1090FB6F89467
S1130160DEBF0FBECDBFBC0185E0FE013196DF01CD
S1130170382F1D923A95E9F725E4298392E59A836D
S11301809B8335E0E7E0F1E0DE01169601900D92E5
S11301903A95E1F735E0ECE0F1E0DE011B960190E1
S11301A00D923A95E1F7FE01709639E0DF011D9258
S11301B03A95E9F7288B998B36E33A8B39963CE0EC
S11301C0DF011D923A95E9F7298F9A8F31E33B8F2E
S11301D03C963DE0DF011D923A95E9F72DA39EA3DD
S11301E032E33FA33D96DF01382F1D923A95E9F79C
S11301F02AAB9BAB33E33CAB3596DF011D928A956A
S1130200E9F72FAB98AF84E389AF359686E0DF0139
S11302101D928A95E9F72CAF9DAF85E38EAFFB0164
S11302208081843209F0C7C07B01FFEFEF1AFF0A17
S113023006E021E045E0B701CE0101960E9480006E
S1130240E80EF11C45E0BE016A5F7F4FCE010196C6
S11302500E945E00882309F488C005E021E049E09B
S1130260B701CE0140960E948000F701E80FF11D0E
S11302708081813409F042C07F0132E0E30EF11C39
S113028000E022E04CE0B701CE0149960E948000D4
S1130290E80EF11C01E022E04DE0B701CE018596A5
S11302A00E948000E80EF11C03E021E045E0B70164
S11302B0CE01C2960E948000E80EF11C04E021E009
S11302C045E0B701CE01C7960E948000E80EF11CFC
S11302D006E023E042E3B701CE018E5B9F4F0E940C
S11302E08000682F70E06E5F7F4F6E0D7F1D21E0F0
S11302F042E0CE018C589F4F0E94800089E0FE01AD
S11303007096A4E8B1E001900D928A95E1F78CE033
S1130310FE017996ADE8B1E001900D928A95E1F77E
S11303208DE0FE01B596A1E7B1E001900D928A95AA
S1130330E1F786E0FE01FC96AEE7B1E001900D9294
S11303408A95E1F785E0FE01F296A9E9B1E0019012
S11303500D928A95E1F785E0FE01F796ACE6B1E0EF
S113036001900D928A95E1F726C045E0BE01655FD4
S11303707F4FCE0101960E945E008823E1F006E0E3
S113038028E042E3B701CE018E5B9F4F0E948000BC
S1130390B701680F711D02E021E046E0CE01CC9662
S11303A00E94800086E0FE01FC96AEE7B1E0019079
S11303B00D928A95E1F7CB58DF4F0FB6F894DEBF64
S11303C00FBECDBFDF91CF910F91FF90EF900895B5
S11303D0AF92BF92CF92DF92EF92FF920F931F934F
S11303E0CF93DF93CDB7DEB7B82EA42ECDB6DEB64D
S11303F0042F10E0C80101962DB73EB7281B390B16
S11304000FB6F8943EBF0FBE2DBF8DB79EB70196B1
S11304107C01A8010E94D103F701E00FF11FAB2D6D
S1130420B0E0A050BF4F8C91808361E06A0DC7019A
S11304300E94DC020FB6F894DEBE0FBECDBEDF9183
S1130440CF911F910F91FF90EF90DF90CF90BF90CD
S1130450AF9008951F920F920FB60F9211242F930D
S11304603F934F935F936F937F938F939F93AF9338
S1130470BF93EF93FF93F8949091C6009A3091F450
S1130480E0911201F0E0E45EFE4F8AE08083109276
S1130490120178948CE191E00E94A50081E08093A0
S11304A01B010CC010921B0180911201E82FF0E097
S11304B0E45EFE4F90838F5F809312017894FF91E6
S11304C0EF91BF91AF919F918F917F916F915F91C8
S11304D04F913F912F910F900FBE0F901F90189541
S11304E0CF93DF931F92CDB7DEB783E390E00E94F2
S11304F0530081E20E94D10278940E94FB0289E6B3
S1130500898319E60E94D902811149C0809114019E
S113051081FF45C061E0CE0101960E940A030E945A
S1130520FB0289818336D1F028F4813649F0823682
S113053071F030C0853601F1C0F0863621F12AC051
S11305404CE06DE871E080E00E94E80128C04DE0D5
S113055061E771E081E00E94E80121C049E064E8BC
S113056071E085E00E94E8011AC045E069E971E0A4
S113057083E00E94E80113C045E06CE671E084E08A
S11305800E94E8010CC046E06EE771E082E00E9440
S1130590E80105C060E080E090E00E94DC0219837D
S11305A0B1CF8093BA0084E08093BC00109215010F
S11305B00895809115010895209115012111FCCF12
S11305C060931601662359F0282FA7E1B1E0E82FC4
S11305D0F92F81918D938E2F821B8617D0F3109261
S11305E0140188EF8093060185EC8093BC0081E0C0
S11305F0809315010895809115018111FCCF10920B
S1130600140188EF8093060185EC8093BC0010925E
S113061015010895209115012111FCCF2091140199
S113062020FF12C0662359F027E131E0A82FB92F2B
S1130630F90181918D938E2F821B8617D0F38091BF
S113064014018D7F809314018091140181700895A9
S11306501F920F920FB60F9211248F939F93EF93D3
S1130660FF938091B900803909F463C090F4803716
S113067009F44CC038F4882309F479C0803609F4AD
S11306804AC07DC0803809F454C0883809F46FC06A
S113069076C0883A81F038F4883909F468C0803A21
S11306A009F45FC06CC0803CD9F0883C09F45FC099
S11306B0883B19F064C010921301E091130181E0AA
S11306C08E0F80931301F0E0E95EFE4F80818093EA
S11306D0BB0085EC8093BC0081E08093150158C079
S11306E09091130180911601981306C08091140112
S11306F081608093140104C08091B9008093060145
S113070085EC8093BC001092150142C080911401C5
S11307108460809314018091140182608093140199
S11307201092130185EC8093BC0081E08093150145
S11307302FC0E091130181E08E0F8093130180910B
S1130740BB00F0E0E95EFE4F80838091140181607C
S11307508093140185EC8093BC0081E080931501A3
S113076017C085EC8093BC001092150111C08091D4
S1130770B9008093060180E98093BC0009C0809190
S1130780B9008093060185EC8093BC00109215019A
S1130790FF91EF919F918F910F900FBE0F901F903B
S11307A01895FB01DC0102C001900D9241505040AC
S10B07B0D8F70895F894FFCF77
S11307B864756D6D6965F84750524D434750474716
S10507C84100EA
S9030000FC
