S01300004750535F4932435F4156522E73726563C2
S11300000C9434000C9451000C9451000C94510045
S11300100C9451000C9451000C9451000C94510018
S11300200C9451000C9451000C9451000C94510008
S11300300C9451000C9451000C9451000C945100F8
S11300400C9451000C9451000C941D020C9451001A
S11300500C9451000C9451000C9451000C945100D8
S11300600C942F030C94510011241FBECFEFD8E041
S1130070DEBFCDBF11E0A0E0B1E0E2EDF7E002C0E9
S113008005900D92AC30B107D9F721E0ACE0B1E0B6
S113009001C01D92AE39B207E1F70E9463020C94CD
S11300A0E7030C9400009093C5008093C40088E992
S11300B08093C10086E08093C2000895E0ECF0E0F4
S11300C0908195FFFDCF8093C60008954423D1F01D
S11300D0FC013081FB012081321316C0FC013196F2
S11300E0DB011196415050E04F5F5F4F480F591F9D
S11300F004C021919D91291309C0E417F507C9F79C
S113010081E0089581E0089580E0089580E00895F5
S11301100F931F93CF93DF938C014423D1F0A62F29
S1130120B72FFC01BC01640F711DC0E0D0E050E0AA
S11301309D919C3211F09A3021F4215011F45F5FAB
S11301400BC09193C90FD11D5F5FE617F70781F7C5
S113015003C0C0E0D0E050E0040F111DF801319756
S11301609E01A1E8B0E80E94D803880F892F881F58
S1130170990B91954FEF489F9001499F300D1124A1
S1130180C21BD30BC083852FDF91CF911F910F9199
S113019008950F931F93CF93DF93662371F0EC01BF
S11301A06150062F10E00F5F1F4F080F191F899130
S11301B00E945E00C017D107D1F78AE00E945E005A
S11301C0DF91CF911F910F9108950F931F93CF93B8
S11301D0DF93CDB7DEB7CC57D1090FB6F894DEBFA5
S11301E00FBECDBFBC0186E0FE013196DF01382F82
S11301F01D923A95E9F725E4298392E59A839B8336
S113020035E0E1E0F1E0DE01179601900D923A95B8
S1130210E1F735E0E6E0F1E0DE011C9601900D9295
S11302203A95E1F7FE0171963AE0DF011D923A95A5
S1130230E9F7298B9A8B36E33B8B3A963DE0DF0155
S11302401D923A95E9F72B8F9C8F31E33D8F3D96B4
S11302503EE0DF011D923A95E9F728A799A732E31A
S11302603AA73E96DF01382F1D923A95E9F72EAB57
S11302709FAB33E338AF3696DF011D928A95E9F7D9
S11302802CAF9DAF84E38EAF369687E0DF011D92DD
S11302908A95E9F72083918385E38283FB0180813A
S11302A0843209F0BEC08B010F5F1F4F21E046E08E
S11302B0B801CE0101960E948800080F111D46E086
S11302C0BE01695F7F4FCE0101960E9466008823BC
S11302D009F481C021E04AE0B801CE0141960E94B0
S11302E08800F801E80FF11D80818134E1F58F0168
S11302F00E5F1F4F22E04DE0B801CE014B960E94E5
S11303008800080F111D22E04EE0B801CE01889646
S11303100E948800080F111D21E046E0B801CE01BB
S1130320C6960E948800080F111D21E046E0B8011E
S1130330CE01CC960E948800080F111D23E042E3F1
S1130340B801CE01875B9F4F0E948800682F70E040
S11303506E5F7F4F600F711F21E042E0CE01855830
S11303609F4F0E9488008AE0FE017196A1E8B1E0E7
S113037001900D928A95E1F78DE0FE017B96ABE842
S1130380B1E001900D928A95E1F78EE0FE01B896F6
S1130390ACE6B1E001900D928A95E1F787E0FE01A9
S11303A0EE5BFF4FAAE7B1E001900D928A95E1F769
S11303B086E0FE01F696A8E9B1E001900D928A95D7
S11303C0E1F786E0FE01FC96A6E6B1E001900D920D
S11303D08A95E1F726C046E0BE01645F7F4FCE01F7
S11303E001960E9466008823E1F028E042E3B80108
S11303F0CE01875B9F4F0E948800B801680F711D72
S113040021E047E0CE018E5B9F4F0E94880087E089
S1130410FE01EE5BFF4FAAE7B1E001900D928A95D1
S1130420E1F7C458DF4F0FB6F894DEBF0FBECDBF5F
S1130430DF91CF911F910F9108951F920F920FB6E4
S11304400F9211242F933F934F935F936F937F9356
S11304508F939F93AF93BF93EF93FF93F8949091EF
S1130460C6009A3091F4E0910C01F0E0EA5EFE4F90
S11304708AE0808310920C01789486E191E00E94D6
S1130480E50081E0809315010CC010921501809164
S11304900C01E82FF0E0EA5EFE4F90838F5F8093BB
S11304A00C017894FF91EF91BF91AF919F918F913F
S11304B07F916F915F914F913F912F910F900FBE5C
S11304C00F901F901895CF93DF931F92CDB7DEB78F
S11304D083E390E00E94530081E20E94D802789462
S11304E00E94020389E689830E94E0028111FCCF05
S11304F080910E0181FFF8CF61E0CE0101960E9448
S113050011038981833611F128F4813649F082364A
S113051091F048C0853681F120F18636C1F142C0A0
S11305206DE08BE891E00E94E3026DE08BE891E0DE
S11305300E94C900D9CF6EE08CE691E00E94E302EC
S11305406EE08CE691E00E94C900CECF6AE081E8BB
S113055091E00E94E3026AE081E891E00E94C90010
S1130560C3CF66E088E991E00E94E30266E088E98F
S113057091E00E94C900B8CF66E086E691E00E944F
S1130580E30266E086E691E00E94C900ADCF67E031
S11305908AE791E00E94E30267E08AE791E00E9423
S11305A0C900A2CF67E08AE791E00E94E3029CCFF2
S11305B08093BA0084E08093BC0010920F010895E8
S11305C080910F01089520910F012111FCCF6093B8
S11305D01001662359F0282FA1E1B1E0E82FF92F8B
S11305E081918D938E2F821B8617D0F310920E016A
S11305F088EF8093000185EC8093BC0081E08093B8
S11306000F01089580910F018111FCCF10920E010A
S113061088EF8093000185EC8093BC0010920F0159
S1130620089520910F012111FCCF20910E0120FF8C
S113063012C0662359F021E131E0A82FB92FF90146
S113064081918D938E2F821B8617D0F380910E019A
S11306508D7F80930E0180910E01817008951F9209
S11306600F920FB60F9211248F939F93EF93FF93E2
S11306708091B900803909F463C090F4803709F49B
S11306804CC038F4882309F479C0803609F44AC090
S11306907DC0803809F454C0883809F46FC076C02E
S11306A0883A81F038F4883909F468C0803A09F44A
S11306B05FC06CC0803CD9F0883C09F45FC0883BC3
S11306C019F064C010920D01E0910D0181E08E0FCC
S11306D080930D01F0E0EF5EFE4F80818093BB00BC
S11306E085EC8093BC0081E080930F0158C0909109
S11306F00D0180911001981306C080910E01816054
S113070080930E0104C08091B9008093000185ECB0
S11307108093BC0010920F0142C080910E0184604E
S113072080930E0180910E01826080930E011092DD
S11307300D0185EC8093BC0081E080930F012FC0F4
S1130740E0910D0181E08E0F80930D018091BB003B
S1130750F0E0EF5EFE4F808380910E018160809314
S11307600E0185EC8093BC0081E080930F0117C0DB
S113077085EC8093BC0010920F0111C08091B900E8
S11307808093000180E98093BC0009C08091B90086
S11307908093000185EC8093BC0010920F01FF91BF
S11307A0EF919F918F910F900FBE0F901F9018950E
S11307B0A29FB001B39FC001A39F700D811D11249E
S11307C0911DB29F700D811D1124911D0895F894FF
S10507D0FFCF55
S10F07D2F84750524D4347504747410040
S9030000FC
