S0130000656E636F6465725F6932632E73726563D4
S11300000EC01DC043C01BC05AC019C018C017C0C1
S113001016C015C014C013C012C0CAC0E5C0112454
S11300201FBECFE5D2E0DEBFCDBF20E0A0E6B0E04A
S113003001C01D92AA39B207E1F702D05BC1E0CF3B
S1130040BC9888B388BBAC9A8BB780628BBF80B7EF
S1130050846080BFE7E9F0E010821282118287E0B9
S113006066D07894C7E9D0E09AD08823E9F384D0A5
S11300708237D1F78BB78F7D8BBFAC9888816CD0DA
S11300801882AC9A8BB780628BBFEECF1F920F920F
S11300900FB60F9211248F93F89486B380718093D6
S11300A0960089B7846089BF8BB78F7D8BBFAC986E
S11300B078948F910F900FBE0F901F9018951F92F8
S11300C00F920FB60F9211242F938F939F93EF9358
S11300D0FF938CE98FBDF894E7E9F0E08181928188
S11300E001969283818381819281813D9740A0F022
S11300F09091960086B38071981303C080818F5FBE
S113010080831092990010929800AC9A8BB7806209
S11301108BBF89B78B7F89BF7894FF91EF919F91B3
S11301208F912F910F900FBE0F901F901895809371
S1130130600010928300109284001092610010926B
S1130140620087B3856087BBC29AC09AB89888EA70
S11301508DB980EF8EB90895209162002F5F2F71C1
S1130160909161002917E1F3E22FF0E0ED59FF4F80
S1130170808320936200089590918400809183008D
S11301809817D1F3809183008F5F8F7080938300E1
S1130190E0918300F0E0EB57FF4F808108952091B8
S11301A084009091830081E0291301C080E00895C8
S11301B01F920F920FB60F9211248F9310929500F5
S11301C0B898B29B02C0B09BFCCFB09903C088EF33
S11301D08DB902C088EA8DB980EF8EB98F910F90E6
S11301E00FBE0F901F9018951F920F920FB60F928B
S11301F011248F939F93EF93FF9380919500823006
S113020009F44CC028F4882359F0813069F169C09D
S1130210843009F44BC000F1853009F44EC061C04C
S11302208FB1882331F08FB1869590916000891346
S11302300EC0789B04C081E08093950003C084E0E5
S1130240809395001FB8B89A8EE78EB94AC088EAA1
S11302508DB980E78EB945C08FB1882329F088EA2B
S11302608DB980E78EB93DC09091620080916100A4
S11302709817B9F1809161008F5F8F71809361004D
S1130280E0916100F0E0ED59FF4F80818FB982E089
S113029080939500B89A80E78EB923C083E0809359
S11302A09500B8981FB88EE78EB91BC085E080937F
S11302B09500B89880E78EB914C0809184008F5F50
S11302C08F7080938400E09184008FB1F0E0EB574D
S11302D0FF4F808384E0809395001FB8B89A8EE71F
S11302E08EB9FF91EF919F918F910F900FBE0F9058
S10B02F01F901895F894FFCF4C
S9030000FC
